{
  "_format": "hh-sol-artifact-1",
  "contractName": "Upload",
  "sourceName": "contracts/Upload.sol",
  "abi": [
    {
      "inputs": [
        {
          "internalType": "string",
          "name": "documentUrl",
          "type": "string"
        }
      ],
      "name": "addDocument",
      "outputs": [],
      "stateMutability": "nonpayable",
      "type": "function"
    },
    {
      "inputs": [
        {
          "internalType": "address",
          "name": "user",
          "type": "address"
        }
      ],
      "name": "allowAccess",
      "outputs": [],
      "stateMutability": "nonpayable",
      "type": "function"
    },
    {
      "inputs": [
        {
          "internalType": "address",
          "name": "user",
          "type": "address"
        }
      ],
      "name": "disallowAccess",
      "outputs": [],
      "stateMutability": "nonpayable",
      "type": "function"
    },
    {
      "inputs": [],
      "name": "getOwnerAddress",
      "outputs": [
        {
          "internalType": "address",
          "name": "",
          "type": "address"
        }
      ],
      "stateMutability": "view",
      "type": "function"
    },
    {
      "inputs": [
        {
          "internalType": "address",
          "name": "user",
          "type": "address"
        }
      ],
      "name": "getUserRole",
      "outputs": [
        {
          "internalType": "enum Upload.UserRole",
          "name": "",
          "type": "uint8"
        }
      ],
      "stateMutability": "view",
      "type": "function"
    },
    {
      "inputs": [
        {
          "internalType": "address",
          "name": "user",
          "type": "address"
        },
        {
          "internalType": "enum Upload.UserRole",
          "name": "role",
          "type": "uint8"
        }
      ],
      "name": "setUserRole",
      "outputs": [],
      "stateMutability": "nonpayable",
      "type": "function"
    },
    {
      "inputs": [],
      "name": "shareAccess",
      "outputs": [
        {
          "components": [
            {
              "internalType": "address",
              "name": "user",
              "type": "address"
            },
            {
              "internalType": "bool",
              "name": "hasAccess",
              "type": "bool"
            }
          ],
          "internalType": "struct Upload.Access[]",
          "name": "",
          "type": "tuple[]"
        }
      ],
      "stateMutability": "view",
      "type": "function"
    },
    {
      "inputs": [
        {
          "internalType": "address",
          "name": "userAddress",
          "type": "address"
        }
      ],
      "name": "viewDocuments",
      "outputs": [
        {
          "internalType": "string[]",
          "name": "",
          "type": "string[]"
        }
      ],
      "stateMutability": "view",
      "type": "function"
    }
  ],
  "bytecode": "0x608060405234801561001057600080fd5b5061197e806100206000396000f3fe608060405234801561001057600080fd5b50600436106100885760003560e01c8063b4449c301161005b578063b4449c3014610127578063bc8bef8114610143578063c4a85bc114610161578063f740e0451461017d57610088565b806303a696111461008d5780630c4f65bd146100a957806327820851146100c7578063772dbbbe146100f7575b600080fd5b6100a760048036038101906100a2919061116d565b610199565b005b6100b16103d5565b6040516100be91906111bc565b60405180910390f35b6100e160048036038101906100dc91906111d7565b6103dd565b6040516100ee919061127b565b60405180910390f35b610111600480360381019061010c91906111d7565b610433565b60405161011e91906113f1565b60405180910390f35b610141600480360381019061013c91906111d7565b6107ae565b005b61014b610b72565b604051610158919061151b565b60405180910390f35b61017b600480360381019061017691906111d7565b610c7d565b005b61019760048036038101906101929190611672565b610fb5565b005b6000808373ffffffffffffffffffffffffffffffffffffffff1673ffffffffffffffffffffffffffffffffffffffff16815260200190815260200160002060030160009054906101000a900460ff1615610228576040517f08c379a000000000000000000000000000000000000000000000000000000000815260040161021f9061173e565b60405180910390fd5b8173ffffffffffffffffffffffffffffffffffffffff163373ffffffffffffffffffffffffffffffffffffffff1614806102d157506002808111156102705761026f611204565b5b600160003373ffffffffffffffffffffffffffffffffffffffff1673ffffffffffffffffffffffffffffffffffffffff16815260200190815260200160002060009054906101000a900460ff1660028111156102cf576102ce611204565b5b145b610310576040517f08c379a0000000000000000000000000000000000000000000000000000000008152600401610307906117aa565b60405180910390fd5b80600160008473ffffffffffffffffffffffffffffffffffffffff1673ffffffffffffffffffffffffffffffffffffffff16815260200190815260200160002060006101000a81548160ff0219169083600281111561037257610371611204565b5b021790555060016000808473ffffffffffffffffffffffffffffffffffffffff1673ffffffffffffffffffffffffffffffffffffffff16815260200190815260200160002060030160006101000a81548160ff0219169083151502179055505050565b600033905090565b6000600160008373ffffffffffffffffffffffffffffffffffffffff1673ffffffffffffffffffffffffffffffffffffffff16815260200190815260200160002060009054906101000a900460ff169050919050565b60606000600160003373ffffffffffffffffffffffffffffffffffffffff1673ffffffffffffffffffffffffffffffffffffffff16815260200190815260200160002060009054906101000a900460ff1690506000600160008573ffffffffffffffffffffffffffffffffffffffff1673ffffffffffffffffffffffffffffffffffffffff16815260200190815260200160002060009054906101000a900460ff1690508373ffffffffffffffffffffffffffffffffffffffff163373ffffffffffffffffffffffffffffffffffffffff161480610563575060028081111561051f5761051e611204565b5b82600281111561053257610531611204565b5b148015610562575060028081111561054d5761054c611204565b5b8160028111156105605761055f611204565b5b105b5b806105c257506001600281111561057d5761057c611204565b5b8260028111156105905761058f611204565b5b1480156105c15750600160028111156105ac576105ab611204565b5b8160028111156105bf576105be611204565b5b105b5b8061065557506000808573ffffffffffffffffffffffffffffffffffffffff1673ffffffffffffffffffffffffffffffffffffffff16815260200190815260200160002060010160003373ffffffffffffffffffffffffffffffffffffffff1673ffffffffffffffffffffffffffffffffffffffff16815260200190815260200160002060009054906101000a900460ff165b610694576040517f08c379a000000000000000000000000000000000000000000000000000000000815260040161068b90611816565b60405180910390fd5b6000808573ffffffffffffffffffffffffffffffffffffffff1673ffffffffffffffffffffffffffffffffffffffff168152602001908152602001600020600001805480602002602001604051908101604052809291908181526020016000905b828210156107a157838290600052602060002001805461071490611865565b80601f016020809104026020016040519081016040528092919081815260200182805461074090611865565b801561078d5780601f106107625761010080835404028352916020019161078d565b820191906000526020600020905b81548152906001019060200180831161077057829003601f168201915b5050505050815260200190600101906106f5565b5050505092505050919050565b60008060003373ffffffffffffffffffffffffffffffffffffffff1673ffffffffffffffffffffffffffffffffffffffff16815260200190815260200160002060010160008373ffffffffffffffffffffffffffffffffffffffff1673ffffffffffffffffffffffffffffffffffffffff16815260200190815260200160002060006101000a81548160ff02191690831515021790555060005b6000803373ffffffffffffffffffffffffffffffffffffffff1673ffffffffffffffffffffffffffffffffffffffff168152602001908152602001600020600201805490508110156109d9578173ffffffffffffffffffffffffffffffffffffffff166000803373ffffffffffffffffffffffffffffffffffffffff1673ffffffffffffffffffffffffffffffffffffffff16815260200190815260200160002060020182815481106108fe576108fd611897565b5b9060005260206000200160000160009054906101000a900473ffffffffffffffffffffffffffffffffffffffff1673ffffffffffffffffffffffffffffffffffffffff1614156109c65760008060003373ffffffffffffffffffffffffffffffffffffffff1673ffffffffffffffffffffffffffffffffffffffff168152602001908152602001600020600201828154811061099d5761099c611897565b5b9060005260206000200160000160146101000a81548160ff0219169083151502179055506109d9565b80806109d1906118ff565b915050610848565b5060005b6000808373ffffffffffffffffffffffffffffffffffffffff1673ffffffffffffffffffffffffffffffffffffffff16815260200190815260200160002060020180549050811015610b6e573373ffffffffffffffffffffffffffffffffffffffff166000808473ffffffffffffffffffffffffffffffffffffffff1673ffffffffffffffffffffffffffffffffffffffff1681526020019081526020016000206002018281548110610a9357610a92611897565b5b9060005260206000200160000160009054906101000a900473ffffffffffffffffffffffffffffffffffffffff1673ffffffffffffffffffffffffffffffffffffffff161415610b5b5760008060008473ffffffffffffffffffffffffffffffffffffffff1673ffffffffffffffffffffffffffffffffffffffff1681526020019081526020016000206002018281548110610b3257610b31611897565b5b9060005260206000200160000160146101000a81548160ff021916908315150217905550610b6e565b8080610b66906118ff565b9150506109dd565b5050565b60606000803373ffffffffffffffffffffffffffffffffffffffff1673ffffffffffffffffffffffffffffffffffffffff168152602001908152602001600020600201805480602002602001604051908101604052809291908181526020016000905b82821015610c74578382906000526020600020016040518060400160405290816000820160009054906101000a900473ffffffffffffffffffffffffffffffffffffffff1673ffffffffffffffffffffffffffffffffffffffff1673ffffffffffffffffffffffffffffffffffffffff1681526020016000820160149054906101000a900460ff16151515158152505081526020019060010190610bd5565b50505050905090565b60016000803373ffffffffffffffffffffffffffffffffffffffff1673ffffffffffffffffffffffffffffffffffffffff16815260200190815260200160002060010160008373ffffffffffffffffffffffffffffffffffffffff1673ffffffffffffffffffffffffffffffffffffffff16815260200190815260200160002060006101000a81548160ff0219169083151502179055506000805b6000803373ffffffffffffffffffffffffffffffffffffffff1673ffffffffffffffffffffffffffffffffffffffff16815260200190815260200160002060020180549050811015610ead578273ffffffffffffffffffffffffffffffffffffffff166000803373ffffffffffffffffffffffffffffffffffffffff1673ffffffffffffffffffffffffffffffffffffffff1681526020019081526020016000206002018281548110610dce57610dcd611897565b5b9060005260206000200160000160009054906101000a900473ffffffffffffffffffffffffffffffffffffffff1673ffffffffffffffffffffffffffffffffffffffff161415610e9a5760016000803373ffffffffffffffffffffffffffffffffffffffff1673ffffffffffffffffffffffffffffffffffffffff1681526020019081526020016000206002018281548110610e6d57610e6c611897565b5b9060005260206000200160000160146101000a81548160ff02191690831515021790555060019150610ead565b8080610ea5906118ff565b915050610d18565b5080610fb1576000803373ffffffffffffffffffffffffffffffffffffffff1673ffffffffffffffffffffffffffffffffffffffff16815260200190815260200160002060020160405180604001604052808473ffffffffffffffffffffffffffffffffffffffff168152602001600115158152509080600181540180825580915050600190039060005260206000200160009091909190915060008201518160000160006101000a81548173ffffffffffffffffffffffffffffffffffffffff021916908373ffffffffffffffffffffffffffffffffffffffff16021790555060208201518160000160146101000a81548160ff02191690831515021790555050505b5050565b6000803373ffffffffffffffffffffffffffffffffffffffff1673ffffffffffffffffffffffffffffffffffffffff1681526020019081526020016000206000018190806001815401808255809150506001900390600052602060002001600090919091909150908051906020019061102f929190611033565b5050565b82805461103f90611865565b90600052602060002090601f01602090048101928261106157600085556110a8565b82601f1061107a57805160ff19168380011785556110a8565b828001600101855582156110a8579182015b828111156110a757825182559160200191906001019061108c565b5b5090506110b591906110b9565b5090565b5b808211156110d25760008160009055506001016110ba565b5090565b6000604051905090565b600080fd5b600080fd5b600073ffffffffffffffffffffffffffffffffffffffff82169050919050565b6000611115826110ea565b9050919050565b6111258161110a565b811461113057600080fd5b50565b6000813590506111428161111c565b92915050565b6003811061115557600080fd5b50565b60008135905061116781611148565b92915050565b60008060408385031215611184576111836110e0565b5b600061119285828601611133565b92505060206111a385828601611158565b9150509250929050565b6111b68161110a565b82525050565b60006020820190506111d160008301846111ad565b92915050565b6000602082840312156111ed576111ec6110e0565b5b60006111fb84828501611133565b91505092915050565b7f4e487b7100000000000000000000000000000000000000000000000000000000600052602160045260246000fd5b6003811061124457611243611204565b5b50565b600081905061125582611233565b919050565b600061126582611247565b9050919050565b6112758161125a565b82525050565b6000602082019050611290600083018461126c565b92915050565b600081519050919050565b600082825260208201905092915050565b6000819050602082019050919050565b600081519050919050565b600082825260208201905092915050565b60005b838110156112fc5780820151818401526020810190506112e1565b8381111561130b576000848401525b50505050565b6000601f19601f8301169050919050565b600061132d826112c2565b61133781856112cd565b93506113478185602086016112de565b61135081611311565b840191505092915050565b60006113678383611322565b905092915050565b6000602082019050919050565b600061138782611296565b61139181856112a1565b9350836020820285016113a3856112b2565b8060005b858110156113df57848403895281516113c0858261135b565b94506113cb8361136f565b925060208a019950506001810190506113a7565b50829750879550505050505092915050565b6000602082019050818103600083015261140b818461137c565b905092915050565b600081519050919050565b600082825260208201905092915050565b6000819050602082019050919050565b6114488161110a565b82525050565b60008115159050919050565b6114638161144e565b82525050565b60408201600082015161147f600085018261143f565b506020820151611492602085018261145a565b50505050565b60006114a48383611469565b60408301905092915050565b6000602082019050919050565b60006114c882611413565b6114d2818561141e565b93506114dd8361142f565b8060005b8381101561150e5781516114f58882611498565b9750611500836114b0565b9250506001810190506114e1565b5085935050505092915050565b6000602082019050818103600083015261153581846114bd565b905092915050565b600080fd5b600080fd5b7f4e487b7100000000000000000000000000000000000000000000000000000000600052604160045260246000fd5b61157f82611311565b810181811067ffffffffffffffff8211171561159e5761159d611547565b5b80604052505050565b60006115b16110d6565b90506115bd8282611576565b919050565b600067ffffffffffffffff8211156115dd576115dc611547565b5b6115e682611311565b9050602081019050919050565b82818337600083830152505050565b6000611615611610846115c2565b6115a7565b90508281526020810184848401111561163157611630611542565b5b61163c8482856115f3565b509392505050565b600082601f8301126116595761165861153d565b5b8135611669848260208601611602565b91505092915050565b600060208284031215611688576116876110e0565b5b600082013567ffffffffffffffff8111156116a6576116a56110e5565b5b6116b284828501611644565b91505092915050565b600082825260208201905092915050565b7f526f6c652068617320616c7265616479206265656e2073657420666f7220746860008201527f6973207573657200000000000000000000000000000000000000000000000000602082015250565b60006117286027836116bb565b9150611733826116cc565b604082019050919050565b600060208201905081810360008301526117578161171b565b9050919050565b7f4f6e6c79204a75646765206f722073656c662063616e2073657420726f6c6500600082015250565b6000611794601f836116bb565b915061179f8261175e565b602082019050919050565b600060208201905081810360008301526117c381611787565b9050919050565b7f596f7520646f6e27742068617665206163636573730000000000000000000000600082015250565b60006118006015836116bb565b915061180b826117ca565b602082019050919050565b6000602082019050818103600083015261182f816117f3565b9050919050565b7f4e487b7100000000000000000000000000000000000000000000000000000000600052602260045260246000fd5b6000600282049050600182168061187d57607f821691505b6020821081141561189157611890611836565b5b50919050565b7f4e487b7100000000000000000000000000000000000000000000000000000000600052603260045260246000fd5b7f4e487b7100000000000000000000000000000000000000000000000000000000600052601160045260246000fd5b6000819050919050565b600061190a826118f5565b91507fffffffffffffffffffffffffffffffffffffffffffffffffffffffffffffffff82141561193d5761193c6118c6565b5b60018201905091905056fea2646970667358221220c74961cf90e9b6b3756c6688fe0aaaf29880106ef9faa87b96b30b38b66ba2e464736f6c63430008090033",
  "linkReferences": {},
  "deployedLinkReferences": {}
}